:100000000C9458000C9480000C9480000C94800098
:100010000C9480000C9480000C9480000C94800060
:100020000C9480000C9480000C9480000C94800050
:100030000C9480000C9480000C9480000C94800040
:100040000C9470030C9480000C9480000C9480003D
:100050000C9480000C9480000C9480000C94800020
:100060000C94BA030C9480000000000025002800C6
:100070002B00040404040404040402020202020229
:10008000030303030303010204081020408001025C
:1000900004081020010204081020000000080002DB
:1000A0000100000304070000000000000000D90464
:1000B00011241FBECFEFD8E0DEBFCDBF11E0A0E01E
:1000C000B1E0EEEBFBE002C005900D92A234B10767
:1000D000D9F722E0A2E4B1E001C01D92AD31B20730
:1000E000E1F710E0C8E5D0E004C02197FE010E94CE
:1000F000D705C735D107C9F70E94F9040C94DD056F
:100100000C94000008950895AF92BF92CF92DF92B1
:10011000EF92FF920F931F93CF93DF936C017B01BC
:100120008B01040F151FEB015E01AE18BF08C0174D
:10013000D10759F06991D601ED91FC910190F081C0
:10014000E02DC6010995892B79F7C501DF91CF9183
:100150001F910F91FF90EF90DF90CF90BF90AF90E5
:10016000089590E0FC01E656FF4F2491FC01EA5708
:10017000FF4F3491FC01EE58FF4FE491EE23C9F09C
:10018000222339F0233001F1A8F4213019F1223073
:1001900029F1F0E0EE0FFF1FE859FF4FA591B49150
:1001A0008FB7F894EC91611126C030953E233C93B3
:1001B0008FBF08952730A9F02830C9F0243049F7BF
:1001C000809180008F7D03C0809180008F77809325
:1001D0008000DFCF84B58F7784BDDBCF84B58F7D82
:1001E000FBCF8091B0008F778093B000D2CF809109
:1001F000B0008F7DF9CF3E2BDACF3FB7F8948091D6
:10020000F9019091FA01A091FB01B091FC0126B592
:10021000A89B05C02F3F19F00196A11DB11D3FBF3E
:10022000BA2FA92F982F8827BC01CD01620F711D0D
:10023000811D911D42E0660F771F881F991F4A9507
:10024000D1F708952091AA01260F3327331F2132B9
:100250003105ECF42091CE01FC0190E080E02430E7
:1002600069F082E00895A091AA012191AC0146575E
:100270005E4FA40FB52FB11D2C930196861798F3EE
:100280008091AA01680F6093AA0180E0089581E03F
:1002900008951092CE0181E08093D0011092CF0199
:1002A00061E082E10E94B10061E083E10E94B1005F
:1002B000E9EBF0E080818E7F808380818D7F808379
:1002C00088E48093B80085E48093BC000895CF93C0
:1002D000DF9391E0909389018823B9F0C091B80031
:1002E000D091BA008091BC008A7B8093BC0060E012
:1002F00082E10E94B10060E083E10E94B1000E94AF
:100300004901D093BA00C093B800DF91CF9108950E
:100310000895E091040280910302E81730F4F0E0C0
:10032000EC59FE4F808190E008958FEF9FEF089584
:1003300090910402809103022FEF3FEF981748F449
:10034000E92FF0E0EC59FE4F208130E09F5F909361
:100350000402C90108958091030290910402891B4F
:10036000990B0895CF92DF92EF92FF920F931F9314
:10037000CF93DF937C01CB018A012091630122237B
:1003800089F0EB016B01C40ED51ECC15DD0569F0BB
:100390006991D701ED91FC910190F081E02DC701A9
:1003A0000995F3CF642F0E942201C801DF91CF91FC
:1003B0001F910F91FF90EF90DF90CF900895CF9312
:1003C000DF931F92CDB7DEB76983209163012223AB
:1003D000F9F020910102203258F021E030E0FC01D8
:1003E0003383228390E080E00F90DF91CF910895D6
:1003F00080910202E82FF0E0ED5BFE4F998190833F
:100400008F5F809302028093010281E090E0ECCF45
:1004100061E0CE0101960E942201F7CFCF92DF92D8
:10042000EF92FF920F931F93CF93DF93D62F672FF7
:10043000FC01C48181E080936301C093420110926A
:1004400002021092010285E092E00E94DF016D2F0E
:1004500085E092E00E94DF01D0910102D13208F0E4
:1004600092C00E94FD006B017C018091CE01811140
:1004700065C082E08093CE0181E08093D0018FEF50
:100480008093CD011092F201D093F101A3E4B1E089
:10049000E1EDF1E080E0D81385C01092F301809186
:1004A000F301CC0FC82BC093F3018091CF018130B1
:1004B00009F07CC01092CF010E94FD006B017C010D
:1004C0008091F3018093BB0080918501909186011A
:1004D000A0918701B0918801892B8A2B8B2B99F0F1
:1004E0000E94FD00009185011091860120918701F5
:1004F000309188016C197D098E099F09061717072D
:1005000028073907E0F18091BC0083FDD9CF85EC45
:100510008093BC000E94FD006B017C018091CE01A4
:10052000823009F445C08091CD018F3F61F1809107
:10053000CD01803241F18091CD0125C080918501AE
:1005400090918601A0918701B0918801892B8A2B17
:100550008B2B09F48ACF0E94FD0000918501109138
:10056000860120918701309188016C197D098E09DF
:100570009F09061717072807390708F076CF8091DB
:1005800084010E94670110920202109201021092EF
:100590006301DF91CF911F910F91FF90EF90DF905A
:1005A000CF9008959D9191938F5F75CF85EEB0CFD9
:1005B0008091850190918601A0918701B091880179
:1005C000892B8A2B8B2B09F4A9CF0E94FD00009167
:1005D00085011091860120918701309188016C1965
:1005E0007D098E099F09061717072807390708F0A4
:1005F00095CFC5CFCF93DF93CDB7DEB728970FB692
:10060000F894DEBF0FBECDBF98E0E0E0F1E0DE0180
:10061000119601900D929A95E1F790911902961713
:1006200008F46FEF70E0660F771F21E030E02C0FC9
:100630003D1F620F731FFB016081860F8068682F6A
:1006400070E081E192E028960FB6F894DEBF0FBE0D
:10065000CDBFDF91CF910C940E0270E070640E94C8
:100660000E0281E090E00895089590E080E0089502
:1006700085ED8093BC008091850190918601A091C9
:100680008701B09188010796A11DB11D23E0B695A1
:10069000A795979587952A95D1F72091BC0024FDC1
:1006A00003C01092CE0108954091850150918601BA
:1006B0006091870170918801452B462B472B69F388
:1006C0000097A105B10541F025E32A95F1F7000057
:1006D0000197A109B109E1CF809184010C946701D0
:1006E0001F920F920FB60F9211242F933F938F9367
:1006F0009F93AF93BF938091F5019091F601A091E4
:10070000F701B091F8013091F40123E0230F2D3768
:1007100058F50196A11DB11D2093F4018093F501B8
:100720009093F601A093F701B093F8018091F9013D
:100730009091FA01A091FB01B091FC010196A11DDD
:10074000B11D8093F9019093FA01A093FB01B0933E
:10075000FC01BF91AF919F918F913F912F910F908D
:100760000FBE0F901F90189526E8230F0296A11D2B
:10077000B11DD2CF1F920F920FB60F9211242F935B
:100780003F934F935F936F937F938F939F93AF9319
:10079000BF93EF93FF938091B900887F803609F46F
:1007A0004AC0F0F5883209F4A7C018F5803109F481
:1007B0009BC0B8F4882309F4F9C0883009F494C0C8
:1007C000FF91EF91BF91AF919F918F917F916F9129
:1007D0005F914F913F912F910F900FBE0F901F90FF
:1007E0001895883109F488C0803251F78093CD0183
:1007F00014C0803409F49DC040F48033B9F38833C9
:10080000F9F68093CD0185ECB0C0803509F485C040
:10081000883509F496C0883499F60E943803D0CF01
:10082000883909F48CC038F5883729F050F48836B7
:1008300011F0803729F683E08093CE011092CC012D
:1008400057C0883809F47BC0803919F0803809F026
:10085000B7CF8091CC01803208F071C0E091CC011B
:1008600081E08E0F8093CC018091BB00F0E0E455D5
:10087000FE4F80833DC0803B39F0E0F4803A09F4BC
:1008800079C0883A09F09CCF84E08093CE01109221
:10089000AB011092AA01E091FF01F09100020995CD
:1008A0008091AA0181110FC081E08093AA0110926A
:1008B0008A0109C0803C09F4A6CF883C09F4A3CF83
:1008C000883B09F07DCFE091AB0181E08E0F8093F2
:1008D000AB01F0E0E657FE4F80818093BB00909122
:1008E000AB018091AA0129C08091F3018093BB00E4
:1008F00085EC8093BC0064CF9091F2018091F1016E
:10090000981758F5E091F20181E08E0F8093F20183
:10091000F0E0EF52FE4F8081E9CFE091F20181E0FB
:100920008E0F8093F2018091BB00F0E0EF52FE4FFA
:1009300080839091F2018091F1019817C8F285E8C7
:10094000D8CFE091F20181E08E0F8093F201809187
:10095000BB00F0E0EF52FE4F80838091D001811107
:100960005CCF81E08093CF0184EA8093BC00109239
:10097000CE0126CF85EC8093BC001092CE018091F1
:10098000CC01803230F4E091CC01F0E0E455FE4F30
:1009900010826091CC0170E0E091FD01F091FE01C8
:1009A0008CEA91E009951092CC010ACF1092CD010A
:1009B00034CFE5E0F2E01382128288EE93E0A0E00B
:1009C000B0E084839583A683B7838CE091E0918324
:1009D0008083E1E1F2E0138212828EE191E0918363
:1009E000808311868EE3848384E1828784E0838719
:1009F0000895789484B5826084BD84B5816084BD97
:100A000085B5826085BD85B5816085BD80916E00AC
:100A1000816080936E0010928100809181008260DD
:100A2000809381008091810081608093810080911A
:100A300080008160809380008091B1008460809309
:100A4000B1008091B00081608093B00080917A0005
:100A5000846080937A0080917A00826080937A002B
:100A600080917A00816080937A0080917A0080681A
:100A700080937A001092C100109204021092030237
:100A800010920202109201020E94490182E890E055
:100A9000909300028093FF0183E890E09093FE0121
:100AA0008093FD0180E18093160280911C028230C8
:100AB00018F098E190931602809319028BE39DE061
:100AC0000197F1F760911602606270E081E192E0B7
:100AD0000E940E028BE496E40197F1F760911602F2
:100AE000606270E081E192E00E940E0283E592E094
:100AF0000197F1F760911602606270E081E192E087
:100B00000E940E0260911602606270E081E192E044
:100B10000E940E0284E0809317026CE070E081E195
:100B200092E00E940E0261E070E081E192E00E949A
:100B30000E028BE39FE10197F1F780911A0288235F
:100B400021F060E080E00E94FA0282E080931802C7
:100B500066E070E081E192E00E940E0262E070E0E7
:100B600081E192E00E940E028BE39FE10197F1F791
:100B700060E081E00E94FA024DE050E066E271E040
:100B800081E192E00E94840061E081E00E94FA022B
:100B90004DE050E064E371E081E192E00E94840066
:100BA000C0E0D0E02097F1F30E940000FBCFEE0FF1
:0E0BB000FF1F0590F491E02D0994F894FFCFFB
:100BBE00000040001400540000000000DF01B201EC
:100BCE0035038801AB0198018901000000002D0357
:100BDE0084003503340348656C6C6F2C20776F727C
:100BEE006C64210046726F6D2041726475696E6F80
:020BFE002100D4
:00000001FF
