:100000000C9462000C948A000C948A000C948A0070
:100010000C948A000C948A000C948A000C948A0038
:100020000C948A000C948A000C948A000C948A0028
:100030000C948A000C948A000C948A000C948A0018
:100040000C9469040C948A000C9437040C941104E9
:100050000C948A000C948A000C948A000C948A00F8
:100060000C948A000C948A000000000024002700F1
:100070002A0000000000250028002B0000000008D6
:10008000000201000003040700000000000000005F
:1000900000000000230026002900040404040404D6
:1000A0000404020202020202030303030303010227
:1000B00004081020408001020408102001020408F6
:1000C0001020B30411241FBECFEFD8E0DEBFCDBF98
:1000D00022E0A2E2B1E001C01D92A634B207E1F72E
:1000E00011E0A0E0B1E0EAE2F2E102C005900D9279
:1000F000A232B107D9F710E0C2E6D0E004C02197E0
:10010000FE010E940D09C136D107C9F70E94000502
:100110000C9413090C940000CF92DF92EF92FF929F
:10012000CF93DF93B0913A02A0E08111AB2F809181
:100130003B0290E0880F991FAC0140575F4FC09081
:100140004002D0904102E0904202F090430230E041
:1001500020E0FA01C591D491E881B90190E080E0F6
:10016000EB23EA130AC02F5F3F4F6C157D058E0508
:100170009F0578F36FEF7FEFCB01DF91CF91FF9079
:10018000EF90DF90CF900895AF92BF92CF92DF9221
:10019000EF92FF920F931F93CF93DF936C017B013C
:1001A0008B01040F151FEB015E01AE18BF08C017CD
:1001B000D10759F06991D601ED91FC910190F08140
:1001C000E02DC6010995892B79F7C501DF91CF9103
:1001D0001F910F91FF90EF90DF90CF90BF90AF9065
:1001E0000895FC01538D448D252F30E0842F90E03D
:1001F000821B930B541710F0CF9608950197089522
:10020000FC01918D828D981761F0A28DAE0FBF2FEA
:10021000B11D5D968C91928D9F5F9F73928F90E040
:1002200008958FEF9FEF0895FC01918D828D9817AF
:1002300031F0828DE80FF11D858D90E008958FEFEC
:100240009FEF0895FC01918D228D892F90E0805CB5
:100250009F4F821B91098F739927089586E991E03A
:100260000E94220121E0892B09F420E0822F0895C9
:1002700080E090E0892B29F00E942E0181110C94DE
:1002800000000895FC01A48DA80FB92FB11DA35A39
:10029000BF4F2C91848D90E001968F739927848FA6
:1002A000A689B7892C93A089B1898C9183708064C9
:1002B0008C93938D848D981306C00288F389E02D6A
:1002C00080818F7D80830895EF92FF920F931F931B
:1002D000CF93DF93EC0181E0888F9B8D8C8D9813F9
:1002E0001AC0E889F989808185FF15C09FB7F89405
:1002F000EE89FF896083E889F98980818370806451
:1003000080839FBF81E090E0DF91CF911F910F919B
:10031000FF90EF900895F62E0B8D10E00F5F1F4FAA
:100320000F731127E02E8C8D8E110CC00FB607FCB9
:10033000FACFE889F989808185FFF5CFCE010E9447
:100340004201F1CFEB8DEC0FFD2FF11DE35AFF4F72
:10035000F0829FB7F8940B8FEA89FB8980818062D5
:10036000CFCF682F86E991E00C946401CF93DF939F
:10037000EC01888D8823B9F0AA89BB89E889F989BD
:100380008C9185FD03C0808186FD0DC00FB607FCF2
:10039000F7CF8C9185FFF2CF808185FFEDCFCE0125
:1003A0000E944201E9CFDF91CF91089590E0FC01D6
:1003B000E458FF4F2491FC01E255FF4F3491FC01BA
:1003C000E656FF4FE491EE23C9F0222339F02330A3
:1003D00001F1A8F4213019F1223029F1F0E0EE0FFB
:1003E000FF1FEE58FF4FA591B4918FB7F894EC9191
:1003F000611126C030953E233C938FBF089527306E
:10040000A9F02830C9F0243049F7809180008F7D11
:1004100003C0809180008F7780938000DFCF84B508
:100420008F7784BDDBCF84B58F7DFBCF8091B0000B
:100430008F778093B000D2CF8091B0008F7DF9CFBD
:100440003E2BDACFCF93DF9390E0FC01E255FF4FD4
:10045000249186569F4FFC0184918823D1F090E02F
:10046000880F991FFC01E859FF4FA591B491FC0139
:10047000EE58FF4FC591D491623071F49FB7F89454
:100480003C91822F809583238C93E8812E2B2883A7
:100490009FBFDF91CF9108958FB7F894EC912E2BE9
:1004A0002C938FBFF6CF3FB7F894809123019091A2
:1004B0002401A0912501B091260126B5A89B05C075
:1004C0002F3F19F00196A11DB11D3FBFBA2FA92FD3
:1004D000982F8827BC01CD01620F711D811D911DD0
:1004E00042E0660F771F881F991F4A95D1F708953C
:1004F0008F929F92AF92BF92CF92DF92EF92FF9234
:100500004B015C010E9453026B017C010E9453026B
:100510006C197D098E099F09683E7340810591051C
:10052000A8F321E0821A9108A108B10888EEC80E4C
:1005300083E0D81EE11CF11C81149104A104B104D4
:1005400029F7FF90EF90DF90CF90BF90AF909F90F2
:100550008F900895CF92DF92EF92FF920F931F93A7
:10056000CF93DF93CDB7DEB7C054D1400FB6F89428
:10057000DEBF0FBECDBF2FB7F8948091920190914E
:100580009301A0919401B09195012FBF40913C023D
:1005900050913D0260913E0270913F028C019D019D
:1005A000041B150B260B370BB901A801403D574022
:1005B0006105710590F480914402C05CDE4F0FB676
:1005C000F894DEBF0FBECDBFDF91CF911F910F9189
:1005D000FF90EF90DF90CF90089580933C0290932E
:1005E0003D02A0933E02B0933F0210923702109258
:1005F000360210923502109234021092330262E0F9
:10060000809138020E94220261E070E080E090E078
:100610000E94780261E0809138020E94220260E02C
:10062000809138020E94D601809139028551823032
:1006300020F58BE291E10197F1F762E080913802B9
:100640000E9422028091450290E08230910538F0AC
:10065000880F991F880F991F05970197F1F7F89454
:1006600080E00E948C006F3F7F4F8F4F9F4F61F45F
:1006700010924402789480E0A0CF64E170E080E0C2
:1006800090E00E947802D9CF81E00E948C006F3FF9
:100690007F4F8F4F9F4F61F38E010F5F1F4F6E0192
:1006A0008FEBC81A8EEFD80A780180E00E948C0088
:1006B000F701608371838283938381E00E948C00C1
:1006C000F7016483758386839783F8E0EF0EF11C4E
:1006D000EC14FD0451F7789430E020E0F801C0807C
:1006E000D180E280F3804481558166817781FFEF7C
:1006F000CF16DF06EF06FF0631F04F3F8FEF5807AA
:100700006807780719F410924402B5CFF90183E025
:10071000F595E7958A95E1F7ED5CFD4F8081880FAF
:10072000C416D506E606F70610F180832F5F3F4F0B
:10073000085F1F4F2832310589F64091370220911A
:10074000330280913402280F3327331F8091350202
:10075000280F311D80913602820F932F911D99270A
:100760004817190681F681E08093440226CF816004
:10077000DCCFFC0101900020E9F73197AF01481B65
:10078000590BBC0186E991E00C94C4000F931F93B0
:10079000CF93DF93CDB7DEB7A1970FB6F894DEBF46
:1007A0000FBECDBF8C018AE30E94B10182E191E0CE
:1007B0000E94B90385E191E00E94B90319A282E386
:1007C00088A3BE01605E7F4FFB0101900020E9F726
:1007D0003197AF01461B570B86E991E00E94C40098
:1007E000F801608186E991E00E946401F80161816D
:1007F00086E991E00E94640188E191E00E94B903DA
:100800008DE00E94B1018AE00E94B101A1960FB66D
:10081000F894DEBF0FBECDBFDF91CF911F910F9136
:1008200008951F920F920FB60F9211242F933F93AA
:100830004F935F936F937F938F939F93AF93BF93E8
:10084000EF93FF9386E991E00E944201FF91EF91BF
:10085000BF91AF919F918F917F916F915F914F91D8
:100860003F912F910F900FBE0F901F9018951F92E0
:100870000F920FB60F9211242F938F939F93EF93A4
:10088000FF93E091A601F091A7018081E091AC0176
:10089000F091AD0182FD1BC090818091AF018F5F0F
:1008A0008F732091B001821741F0E091AF01F0E029
:1008B000EA56FE4F958F8093AF01FF91EF919F9184
:1008C0008F912F910F900FBE0F901F9018958081E0
:1008D000F4CF1F920F920FB60F9211242F933F93D4
:1008E0008F939F93AF93BF938091920190919301C7
:1008F000A0919401B09195013091220123E0230F42
:100900002D3758F50196A11DB11D2093220180932A
:10091000920190939301A0939401B09395018091DB
:10092000230190912401A0912501B0912601019607
:10093000A11DB11D8093230190932401A093250153
:10094000B0932601BF91AF919F918F913F912F91CD
:100950000F900FBE0F901F90189526E8230F029658
:10096000A11DB11DD2CFE6E9F1E01382128288EE1B
:1009700093E0A0E0B0E084839583A683B78384E00E
:1009800091E09183808385EC90E09587848784EC67
:1009900090E09787868780EC90E0918B808B81EC4C
:1009A00090E0938B828B82EC90E0958B848B86EC2D
:1009B00090E0978B868B118E128E138E148EA3E38C
:1009C000B2E082E015968C93159786E116968C938B
:1009D0001697E0EBF0E0E4911796EC931797ECE9AB
:1009E000F0E0E4911896EC93189740E85EE360E03D
:1009F00070E01D964D935D936D937C935097089591
:100A0000CF93DF9300D0CDB7DEB7789484B5826002
:100A100084BD84B5816084BD85B5826085BD85B5A2
:100A2000816085BD80916E00816080936E00109220
:100A3000810080918100826080938100809181009B
:100A4000816080938100809180008160809380002C
:100A50008091B10084608093B1008091B00081608A
:100A60008093B00080917A00846080937A008091B6
:100A70007A00826080937A0080917A00816080930E
:100A80007A0080917A00806880937A001092C10089
:100A900062E0809138020E9422022FB7F894809180
:100AA000920190919301A0919401B09195012FBF73
:100AB000805D9740A109B10980933C0290933D026B
:100AC000A0933E02B0933F0287E380934502E091FA
:100AD000A601F091A70182E08083E091A201F0914C
:100AE000A3011082E091A401F091A5018FEC808315
:100AF0001092AE01E091AA01F091AB0186E08083F3
:100B0000E091A801F091A901808180618083E0914A
:100B1000A801F091A901808188608083E091A801FB
:100B2000F091A901808180688083E091A801F09113
:100B3000A90180818F7D808380E395E7A0E0B0E00C
:100B400080939A0190939B01A0939C01B0939D0187
:100B500061E08DE00E94220261E083E00E942202B7
:100B600061E084E00E94220261E085E00E942202AE
:100B700061E086E00E94220261E087E00E9422029A
:100B800061E088E00E94220261E089E00E94220286
:100B900061E08AE00E9422022BE8822E21E0922E60
:100BA00030EDE32E37E0F32E40E1C42E47E2D42EA1
:100BB00050E0A52E50E0B52E86E991E00E9422017A
:100BC000181619060CF079C007E211E02FB7F89457
:100BD0008091920190919301A0919401B09195011F
:100BE0002FBF80939E0190939F01A093A001B0938B
:100BF000A10186E991E00E94000197FF3CC12FB757
:100C0000F8948091920190919301A0919401B091F8
:100C100095012FBF40919E0150919F016091A001CD
:100C20007091A101841B950BA60BB70B40919A0103
:100C300050919B0160919C0170919D0184179507D3
:100C4000A607B707B0F2809127018A33B1F58091EA
:100C50002801803321F080912901813371F5809141
:100C60002A01803321F080912B01843331F580916A
:100C70002C01803349F480912D01803329F4809137
:100C80002E01803309F449C08AE30E94B10182E158
:100C900091E00E94B9038BE191E00E94B9038EE1DB
:100CA00091E00E94B90388E191E00E94B9038DE0D0
:100CB0000E94B1018AE00E94B101609090017090A1
:100CC0009101C30164EF71E00E94E508892B69F48A
:100CD00010918F0160E0111101C061E08DE00E9470
:100CE000D601F1E01F2710938F01C301B7010E94C5
:100CF000E508892B09F079C00E94AA02882341F0F7
:100D0000809139028C3009F496C020F58B30D9F1EE
:100D100060E070E080EC9FE75EC080912F0180333F
:100D2000A1F0813351F660918B0170918C0180911B
:100D30008D0190918E010E94AF086983770F660B39
:100D4000762F6A83CE01019602C080E390E00E9474
:100D5000C603B3CF85518230D8F610913502612F8A
:100D600070E0762F662766277F7780913602682BA2
:100D700090E080E00E9447072DEC3CEC4CEC5DE3FA
:100D80000E94840774C06091350270E090E080E0BA
:100D90000E9447071B012C011091360217FF0AC061
:100DA000AC019B0160E070E080E89FEB0E9442088C
:100DB0001B012C011F70612F70E090E080E00E9409
:100DC00049072DEC3CEC4CEC5DE30E948407A2014A
:100DD00091010E94430860938B0170938C01809372
:100DE0008D0190938E010E94AA02C301B6010E9458
:100DF000E508892B21F410929101109290018091C5
:100E00009001909191018C599F4F90939101809303
:100E1000900164E670E080E090E00E947802A11406
:100E2000B10409F4C9CE0E942E01882309F4C4CE6E
:100E30000E940000C1CE10913502612F70E090E059
:100E400080E00E9447071B012C01609136026F7001
:100E500070E090E080E00E9449072DEC3CEC4CEC07
:100E60005DE30E948407A20191010E94430817FFDD
:100E7000B2CF9058B0CF8D30910509F4E4CEF8018F
:100E800081938F018E169F0609F0A0CEDCCEE894E8
:100E900009C097FB3EF490958095709561957F4FC2
:100EA0008F4F9F4F9923A9F0F92F96E9BB27939570
:100EB000F695879577956795B795F111F8CFFAF480
:100EC000BB0F11F460FF1BC06F5F7F4F8F4F9F4FB1
:100ED00016C0882311F096E911C0772321F09EE80F
:100EE000872F762F05C0662371F096E8862F70E075
:100EF00060E02AF09A95660F771F881FDAF7880F4F
:100F00009695879597F908950E9497070C9408087D
:100F10000E94FA0738F00E94010820F0952311F092
:100F20000C94F1070C94F70711240C943C080E94D0
:100F3000190870F3959FC1F3950F50E0551F629FFC
:100F4000F001729FBB27F00DB11D639FAA27F00D22
:100F5000B11DAA1F649F6627B00DA11D661F829F49
:100F60002227B00DA11D621F739FB00DA11D621F2E
:100F7000839FA00D611D221F749F3327A00D611D4B
:100F8000231F849F600D211D822F762F6A2F11242D
:100F90009F5750409AF0F1F088234AF0EE0FFF1F60
:100FA000BB1F661F771F881F91505040A9F79E3FB7
:100FB000510580F00C94F1070C943C085F3FE4F37A
:100FC000983ED4F3869577956795B795F795E7950D
:100FD0009F5FC1F7FE2B880F911D9695879597F916
:100FE000089597F99F6780E870E060E008959FEFAB
:100FF00080EC089500240A941616170618060906B0
:10100000089500240A94121613061406050608957E
:10101000092E0394000C11F4882352F0BB0F40F406
:10102000BF2B11F460FF04C06F5F7F4F8F4F9F4F46
:10103000089557FD9058440F551F59F05F3F71F0C8
:101040004795880F97FB991F61F09F3F79F087952F
:101050000895121613061406551FF2CF4695F1DFB8
:1010600008C0161617061806991FF1CF8695710548
:10107000610508940895E894BB2766277727CB017C
:1010800097F908955058BB27AA270E945A080C9434
:1010900008080E94FA0738F00E94010820F039F48D
:1010A0009F3F19F426F40C94F7070EF4E095E7FB44
:1010B0000C94F107E92F0E94190858F3BA17620738
:1010C00073078407950720F079F4A6F50C943B0884
:1010D0000EF4E0950B2EBA2FA02D0B01B901900153
:1010E0000C01CA01A0011124FF27591B99F0593F97
:1010F00050F4503E68F11A16F040A22F232F342FDF
:101100004427585FF3CF469537952795A795F0402C
:101110005395C9F77EF41F16BA0B620B730B840B41
:10112000BAF09150A1F0FF0FBB1F661F771F881FF9
:10113000C2F70EC0BA0F621F731F841F48F4879551
:1011400077956795B795F7959E3F08F0B0CF939543
:10115000880F08F09927EE0F9795879508950E94BC
:10116000B6086894B1110C943C0808950E942108B7
:1011700088F09F5798F0B92F9927B751B0F0E1F058
:10118000660F771F881F991F1AF0BA95C9F714C008
:10119000B13091F00E943B08B1E008950C943B08F7
:1011A000672F782F8827B85F39F0B93FCCF3869541
:1011B00077956795B395D9F73EF49095809570959E
:1011C00061957F4F8F4F9F4F089597FB072E16F421
:1011D000009407D077FD09D00E94F90807FC05D0DC
:1011E0003EF4909581959F4F0895709561957F4F3E
:1011F0000895AA1BBB1B51E107C0AA1FBB1FA6175E
:10120000B70710F0A61BB70B881F991F5A95A9F7AF
:1012100080959095BC01CD010895EE0FFF1F0590BC
:0A122000F491E02D0994F894FFCF3B
:10122A00000000006401C400F100B60122010001BF
:10123A0014013031003034004C520033380045522A
:02124A000000A2
:00000001FF
